:020000040800F2
:10000000800400209D010008FF1000084B1000082C
:10001000FD100008A9020008F51200080000000009
:100020000000000000000000000000004D12000869
:10003000AB02000800000000011100084F12000888
:10004000B7010008B7010008B7010008B7010008B0
:10005000B7010008B7010008B7010008B7010008A0
:10006000B7010008B7010008B7010008B701000890
:10007000B7010008B7010008B7010008B701000880
:10008000B7010008B7010008B7010008B701000870
:10009000B7010008B7010008B7010008B701000860
:1000A000B7010008B7010008B7010008B701000850
:1000B000B7010008B7010008B7010008B701000840
:1000C000B7010008B7010008B7010008B701000830
:1000D000B7010008B7010008B7010008B701000820
:1000E000B7010008B7010008B7010008B701000810
:1000F000B7010008B7010008B7010008B701000800
:10010000B7010008B7010008B7010008B7010008EF
:10011000B7010008B7010008B7010008B7010008DF
:10012000B7010008B7010008B7010008B7010008CF
:10013000B7010008B7010008B7010008B7010008BF
:10014000B7010008B7010008B7010008B7010008AF
:10015000B7010008B7010008B7010008B70100089F
:10016000B7010008B7010008B7010008B70100088F
:10017000B7010008B7010008B7010008000000003F
:10018000B7010008B7010008DFF80CD000F07AF8DA
:10019000004800476D13000880040020064880478F
:1001A00006480047FEE7FEE7FEE7FEE7FEE7FEE75C
:1001B000FEE7FEE7FEE7FEE7D91200088901000826
:1001C0002DE9F05F0546002092469B46884606468C
:1001D000814640241BE0284641464746224600F01F
:1001E00041F853465A46C01A914110D31146184659
:1001F000224600F028F82D1A67EB01084F462246E8
:100200000120002100F01FF817EB00094E41201ECD
:10021000A4F10104DFDC484631462A464346BDE8E6
:10022000F09FD2B201E000F8012B491EFBD27047CB
:100230000022F6E710B513460A4604461946FFF7B2
:10024000F0FF204610BD202A04DB203A00FA02F11C
:10025000002070479140C2F1200320FA03F31943B4
:1002600090407047202A04DB203A21FA02F0002156
:10027000704721FA02F3D040C2F1200291400843B6
:1002800019467047064C074D06E0E06840F0010350
:1002900094E8070098471034AC42F6D3FFF778FF94
:1002A000A8150008C8150008FEE770472DE9F84FAB
:1002B00000224FF0010803254FF00F0E0B6808FADB
:1002C00002F42340A3426ED14E68012E05D0022EC7
:1002D00003D0112E01D0122E12D186684FEA420CA3
:1002E00005FA0CF7BE43CF6807FA0CF7374387606F
:1002F0004668A6430C79C4F3001494403443446028
:10030000C668570005FA07FC8C6826EA0C06BC4054
:100310003443C4604C68022C01D0122C13D1D40891
:1003200000EB8404A346D4F8209054074FEAD46A23
:100330000EFA0AF629EA06090E6906FA0AF646EAEC
:100340000906CBF8206006680C7926EA0C0604F052
:100350000304BC40344304604C68E40065D5364C6B
:10036000266846F480462660246822F0030604F4DA
:1003700080440094314C3444A446D4F8084896078D
:10038000370F0EFA07F6B4432D4EB04201D10026C6
:1003900024E02C4EB04201D101261FE02A4EB0428B
:1003A00002D102261AE040E0284EB04201D10326D5
:1003B00014E0274EB04201D104260FE0254EB04292
:1003C00001D105260AE0244EB04201D1062605E0FF
:1003D000224EB04201D1072600E00826BE40264347
:1003E000CCF808681E4E34684F689C43FF0300D564
:1003F0001C4334601A4C241D26684F689E43BF037B
:1004000000D51E432660164E083634684F689C435C
:10041000FF0200D51C433460114E0C3634684F681F
:100420009C43BF0200D51C433460521C102AFFF4C9
:1004300045AFBDE8F88F000044380240003001406D
:10044000000002400004024000080240000C02408C
:10045000001002400014024000180240001C02403C
:10046000003C01400AB1816170470904FBE70000CC
:1004700001488068704700000C0000200248816835
:1004800002781144816070470C0000200B4810B5C1
:10049000016841F400710160016841F4806101600C
:1004A000016841F480710160032000F061F80020D0
:1004B00000F006F800F024F8002010BD003C0240D7
:1004C00070B50D4D04464FF47A712878B1FBF0F009
:1004D0000A490968B1FBF0F000F0A3FD48B9102CFF
:1004E00007D200222146501E00F022F800206C6046
:1004F00070BD012070BD00000C000020180000201D
:100500000A4808B5016841F480410160006800F4C0
:10051000804000900548001F016841F08051016053
:10052000006800F08050009008BD00004438024090
:10053000F0B40E4B1B680C46C3F30223C3F107054E
:10054000042D00D90425191D072901D2002300E03C
:10055000DB1E012606FA05F1491E214099409E4006
:10056000761E16403143F0BC00F0C5BE0CED00E035
:10057000064900F0070208684FF6FF03184040EAFA
:100580000220034A10430860704700000CED00E0B1
:100590000000FA052DE9F0470E46050065D0DFF8AA
:1005A0001481D8F80000F7B200F00F00B04207D273
:1005B00088F80070D8F8000000F00F00B04254D165
:1005C00028683D4C810712D5400703D5206840F4C8
:1005D000E05020602878000703D5206840F4604090
:1005E00020602068A96820F0F00008432060287887
:1005F000C0072DD0304968680839012812D0022878
:1006000013D0032811D00968890700292DDA216841
:1006100021F0030101432160FFF72AFF814641F2E7
:10062000883A0EE009688903EFE709688901ECE779
:10063000FFF71EFFA0EB0901514502D90320BDE8D9
:10064000F0872068696800F00C00B0EB810FEFD1F3
:10065000D8F80010404601F00F01B14207D90770E9
:10066000006800F00F00B04201D00120E7E72878D1
:10067000400705D52068E96820F4E0500843206071
:100680002878000706D52068296920F4604040EAF0
:10069000C100206000F018F82168084AC1F3031176
:1006A000515CC8400649086006480068FFF708FF2B
:1006B0000020C4E7003C02400838024098150008BA
:1006C0001800002010000020154810B5006810F038
:1006D0000C02144813D04110042A0FD0082A0ED15E
:1006E0000F4C241F2268236802F03F025B0207D5EB
:1006F0002068C0F38810A0FB010106E0084610BD89
:100700002168C1F38811A1FB00010023FFF758FD08
:100710002168C1F30141491C4900B0FBF1F010BD53
:10072000083802400024F4002DE9F84F040076D088
:100730002078DFF838A3CE4DC00749D0DAF8001092
:100740005046C1F38101012908D00068C0F381003F
:1007500002280AD1281D0068400206D528688003B7
:1007600036D560680028E2D032E06068B0F5803F9E
:1007700010D0B0F5A02F286810D020F48030286069
:10078000286820F4802028606068A0B1FFF770FE20
:1007900006460CE0286840F48030F4E740F48020FE
:1007A0002860F7E7FFF764FE801B642873D8286889
:1007B0008003F7D50CE0FFF75BFE064605E000BFBF
:1007C000FFF756FE801B6428F0D828688003F7D412
:1007D0002078DFF8A08280074FF000093ED5DAF8D4
:1007E0000010504611F00C0F09D00068C0F38100D2
:1007F00002280BD19D48001F0068400206D42868DB
:10080000800715D5E068012809D111E0E068B8B18A
:100810000120C8F80000FFF72BFE064605E020E1A6
:10082000FFF726FE801B0228C0D828688007F7D56E
:100830002868216920F0F80040EAC10028600DE036
:10084000C8F80090FFF714FE064604E0FFF710FE1C
:10085000801B02281FD828688007F7D4207800075B
:1008600022D5824E844861696C3671B101210160E4
:10087000FFF7FEFD074604E0FFF7FAFDC01B022864
:1008800009D830688007F7D50EE0C0F80090FFF770
:10089000EFFD074605E082E0FFF7EAFDC01B0228F6
:1008A0007DD830688007F7D42078400768D5DFF816
:1008B000BCB100270BF1380BDBF80000C0000BD4F3
:1008C000DBF8001041F08051CBF80010DBF800009D
:1008D000012700F080500090684E3068C00510D4A9
:1008E000306840F480703060FFF7C2FD009005E092
:1008F000FFF7BEFD0099401A022850D83068C005A5
:10090000F6D55A4EA068683601280FD00528306801
:1009100010D020F001003060306820F0040030601A
:10092000A068B8B1FFF7A4FD00900FE0306840F078
:100930000100F4E740F004003060F7E7FFF798FDAE
:100940000099411A41F28830814266D830688007A8
:10095000F4D50EE0FFF78CFD009007E0FFF788FD6F
:100960000099411A41F28830814256D83068800798
:10097000F4D42FB1DBF8001021F08051CBF8001037
:10098000A069D0B3DAF800205146C2F38102022AEE
:100990004AD00228484607D0C8F8600000E03CE092
:1009A000FFF766FD04463BE04746C8F86000FFF7E6
:1009B0005FFD064605E000BFFFF75AFD801B0228D9
:1009C0002BD828688001F7D4D4E907010843A16A2D
:1009D0002B4A490802EB0141626A41EA821108434D
:1009E00094F82C1040EA01612048001F01600120AA
:1009F0003866FFF73DFD044605E034E0FFF738FDBB
:100A0000001B022809D828688001F7D52BE000BF19
:100A1000FFF72EFD001B022802D90320BDE8F88F46
:100A200028688001F4D41EE00128F7D00868E26944
:100A300000F48001914214D1226A00F03F019142FA
:100A40000FD147F6C071626A0140914209D1A26A92
:100A500000F44031914204D1E16A00F070608842B4
:100A600001D00120DAE70020D8E700000838024072
:100A70000038024000004742800E474200700040AC
:100A80000000FFFF70B5040005D00025A56294F8B2
:100A9000510010B106E0012070BD84F8505020468E
:100AA00000F030F8022084F851002068016821F03D
:100AB00040010160D4E901010843D4E90312114364
:100AC000084361690843218B01F400710843E1691F
:100AD0000843216A0843A16A084321680860A069A5
:100AE000042101EA1040616A0843216848602068D7
:100AF000C16921F40061C1616565012084F851007C
:100B0000002070BDF0B587B0044614216846FFF799
:100B10008FFB1C492068884232D11B4800240168A1
:100B200041F480510160006800F48050059016483F
:100B30001438016841F001010160016801F0010110
:100B40000591016841F0020101600068022500F092
:100B5000020005902020CDE9000502AA0326052702
:100B600082E8D00069460948FFF7A0FB3020CDE9B4
:100B7000000502AA694682E8D0000548FFF796FB07
:100B800007B0F0BD00300140443802400000024090
:100B9000000402402DE9F84F0446406800259846BD
:100BA00016460F464FF0040BB0F5827F01D1A068C6
:100BB00088B194F85000012818D0012084F8500022
:100BC000FFF756FC814694F851004FF0000A0128C7
:100BD0000ED002257DE084F851B013460A46204627
:100BE000CDF8008000F02CF9BDE8F88F0220FBE77B
:100BF000002F6DD0002E6BD084F851B0C4F854A0F3
:100C0000A763A687E687C4F830A0A4F834A0A4F8A8
:100C100036A0C4F840A0C4F844A0A068B0F5004FC6
:100C200004D12068016821F48041016020680168D6
:100C3000490603D4016841F040010160E068D8B181
:100C400039E020688168C90709D0007BA16B087072
:100C5000A06B401CA063E08F401EE0870CE0FFF714
:100C600007FCA0EB0901414503D3B8F1FF3F03D0D6
:100C700036E0B8F1000F33D0E08F0028E1D11DE05D
:100C800020688168C90709D0C068A16B0880A06B83
:100C9000801CA063E08F401EE0870CE0FFF7E8FBBC
:100CA000A0EB0901414503D3B8F1FF3F03D017E0A2
:100CB000B8F1000F14D0E08F0028E1D14A46414638
:100CC000204600F01EFA08B120206065606D00B17A
:100CD0000125012084F8510084F850A0284683E7BC
:100CE0000325F6E72DE9F84F044690F85000002759
:100CF0001D461646894601280DD04FF0010B84F899
:100D000050B0FFF7B5FB804694F85100BA46012871
:100D100004D002278EE00220BDE8F88FB9F1000F61
:100D20007DD0002E7BD0032084F85100C4F854A05D
:100D3000C4F83090A686E686C4F838A0A4F83CA093
:100D4000A4F83EA0C4F844A0C4F840A0A068B0F540
:100D5000004F04D12068016841F48041016020689F
:100D60000168490603D4016841F040010160E06870
:100D7000B0F5006F606803D030B3012E24D040E09E
:100D800008B1012E1CD1206B21680088C86006E0E4
:100D900020688168890709D5216B0988C160206BAB
:100DA000801C2063E08E401EE08609E0FFF760FBB8
:100DB000A0EB0800A84202D3681C01D031E07DB34B
:100DC000E08E0028E4D11FE0206B216800780873D2
:100DD00006E020688168890709D5216B09780173CD
:100DE000206B401C2063E08E401EE08609E0FFF788
:100DF0003FFBA0EB0800A84202D3681C01D010E022
:100E000075B1E08E0028E4D142462946204600F024
:100E1000A7F908B120206065A06820B107E008E0CC
:100E2000FFE7032706E02068C16880680090606DD6
:100E300000B1012784F851B084F850A038466BE720
:100E40002DE9F84F044690F8500000270A9E1D46F1
:100E500092468B464FF0010901280ED0012084F8FC
:100E60005000FFF705FB804694F8510061680128A7
:100E70000CD0B1F5827F07D102E00220BDE8F88FE7
:100E8000A16809B9042801D00227C2E0BBF1000F14
:100E900027D0BAF1000F24D01DB394F851000428D4
:100EA00002D0052084F8510000206065C4F838A005
:100EB000E587A587C4F830B0E586A5862064606420
:100EC00020680168490603D4016841F040010160CF
:100ED000E068B0F5006F606805D0E8B3012D46D03A
:100EE0007FE0012795E008B1012D39D1206B216801
:100EF0000088C860206B801C2063E08E401EE08666
:100F00002EE02068816889070FD5E18E69B1B9F1BB
:100F1000010F0AD1216B0988C160206B801C2063FE
:100F2000E08E401EE0864FF0000920688168C90706
:100F30000CD0E18F51B1C068A16B0880A06B801C00
:100F4000A063E08F401EE0874FF00109FFF790FAA1
:100F5000A0EB0800B04200E009E001D3701C50D1C2
:100F6000E08E0028CDD1E08F0028CAD13FE0206B71
:100F7000216800780873206B401C2063E08E401EBF
:100F8000E0862EE02068816889070FD5E18E69B17F
:100F9000B9F1010F0AD1216B09780173206B401C54
:100FA0002063E08E401EE0864FF0000920688168D3
:100FB000C9070CD0E18F51B1C068A16B0870A06B5C
:100FC000401CA063E08F401EE0874FF00109FFF74F
:100FD0004FFAA0EB0800B04202D3701C01D010E021
:100FE0007EB1E08E0028CDD1E08F0028CAD14246E4
:100FF0003146204600F0B4F828B101272020606572
:1010000007E0032705E0A06818B92068C168806878
:101010000090012084F85100002084F850003846E8
:101020002CE710B5401EB0F1807F01D3012010BD28
:101030004FF0E02460610F21601700F05CF90020A0
:10104000A06107202061002010BDFEE730B587B009
:1010500014216846FFF7ECF819480024016841F0B4
:1010600080010160016801F080010591016841F093
:1010700001010160016801F001010591016841F081
:1010800008010160016801F008010591016841F063
:101090000201016000680B4D00F002000590012282
:1010A00080212846FFF7DEF9802000900120CDE95D
:1010B0000104694628460394FFF7F8F807B030BDED
:1010C00030380240000C02400B480A494FF40072CD
:1010D00001604FF48271416000218160C160016153
:1010E000C0E90512C1610162416281620A21C162E7
:1010F000FFF7C8BC0030014028000020FEE7704721
:101100007047F8B5044640684FF48273984221D185
:10111000A0684FF48065B0F5004F01D0A8420AD115
:101120002068066826F0400606606068984211D183
:10113000A068A8420ED000920B46002280212046D3
:1011400000F03AF8002804D0606D40F0200060659F
:101150000320F8BD00920B4600220121EFE70000BA
:1011600038B504461248134B0068B0FBF3F04FF457
:101170007A73584300906068B0F5827F0DD10B46BA
:10118000009200228021204600F016F870B1606DB8
:1011900040F020006065032038BD009830B1401E4B
:1011A000009020688068C0430006F6D5002038BD56
:1011B0001800002000366E012DE9F0411D4617464B
:1011C0000E460446DDF8188008E0681C06D0FFF7DC
:1011D0004FF9A0EB0800A8420BD255B120688068F7
:1011E00036EA000030D00020B842EED10020BDE841
:1011F000F0812068416821F0E00141606068B0F54D
:10120000827F0BD1A068B0F5004F02D0B0F5806F9F
:1012100004D12068016821F040010160A06AB0F5A6
:10122000005F09D12068016821F400510160206845
:10123000016841F400510160012084F85100002050
:1012400084F850000320D2E70120CDE77047FFF774
:1012500015B9000030B593B030216846FEF7E8FFBD
:1012600014210CA8FEF7E4FF19480025016841F09D
:1012700080510160006800F08050119015480168AD
:1012800041F4804101600068022400F48040119024
:101290000120039010200490009406940820CDE9CA
:1012A0000750A820CDE9090404200B906846FFF7F9
:1012B0003BFA0CA90F2081E831004FF4A0500F90A9
:1012C000E002109005210CA8FFF764F913B030BDBF
:1012D00040380240007000400548016841F4700148
:1012E000016003494FF000608039086070470000DA
:1012F00088ED00E0FEE70907090E002804DB00F195
:10130000E02080F80014704700F00F0000F1E020AA
:1013100080F8141D704702E008C8121F08C1002A97
:10132000FAD170477047002001E001C1121F002A66
:10133000FBD1704738B50B4C002280212046FFF7C7
:1013400091F806208DF800004FF6FF7301226946E0
:101350000548FFF7C7FC012280212046FFF782F8ED
:1013600038BD0000000C024028000020FFF78EF876
:10137000FFF770FFFFF76AFEFFF7A6FE00F048F8E0
:101380000A4C2070002000F0D1F800F041F86070A5
:10139000FFF7D0FF0A22A11C002000F05DF80A220E
:1013A0000349002000F006F8FEE7000000000020DE
:1013B0001C000020F8B5144D16460F4604460022C6
:1013C00080212846FFF74EF803208DF80000200CFE
:1013D0008DF80100200A8DF802008DF803404FF6C9
:1013E000FF742346042269460848FFF77BFC234626
:1013F000324639460548FFF7CDFB012280212846B9
:10140000FFF730F8F8BD0000000C02402800002073
:101410007CB50F4C002280212046FFF723F80520E1
:101420008DF800004FF6FF752B46012269460948EA
:10143000FFF758FC2B46012201A90648FFF7AAFB3B
:10144000012280212046FFF70DF89DF804007CBDA5
:10145000000C0240280000202DE9F041314E1746D3
:101460000C46002280213046FEF7FCFF06204FF696
:10147000FF78207045464346012221462A48FFF75F
:1014800031FC012280213046FEF7ECFF0022802152
:101490003046FEF7E7FF60782B46062201682160A0
:1014A0008088A08021462048FFF71CFC0122802173
:1014B0003046FEF7D7FF00251AE000BFFEF7D2FF47
:1014C00004EB450043464078032221460088A4F8F7
:1014D00001001548FFF706FC012280213046FEF787
:1014E000C1FF00BFFFF794FF0028FBD16D1CEDB2D8
:1014F000B5EB570F4FF000024FF080013046DDD3BF
:10150000FEF7B0FF04202070434601222146064822
:10151000FFF7E8FB3046BDE8F04101228021FEF7ED
:10152000A1BF0000000C02402800002031B5184C7B
:1015300082B0002280212046FEF794FF50208DF8D3
:1015400000004FF6FF752B46012269461148FFF750
:10155000C9FB012280212046FEF784FF0022802162
:101560002046FEF77FFF01208DF8000002462B4643
:1015700069460848FFF7B6FB2B46012202A9054839
:10158000FFF7B0FB012280212046FEF76BFF3EBD36
:10159000000C0240280000200000000000000000B5
:1015A0000102030406070809C8150008000000200E
:1015B0001C00000016130008E41500081C000020A1
:1015C000640400002613000800000204060810014D
:1015D00005090807010000001000000000000000DD
:0415E0000024F400EF
:040000050800018965
:00000001FF
